{
  "_format": "hh-sol-artifact-1",
  "contractName": "FamilyFi",
  "sourceName": "contracts/FamilyFi.sol",
  "abi": [
    {
      "inputs": [
        {
          "internalType": "address",
          "name": "_stablecoin",
          "type": "address"
        },
        {
          "internalType": "address",
          "name": "_oracle",
          "type": "address"
        }
      ],
      "stateMutability": "nonpayable",
      "type": "constructor"
    },
    {
      "inputs": [
        {
          "internalType": "address",
          "name": "owner",
          "type": "address"
        }
      ],
      "name": "OwnableInvalidOwner",
      "type": "error"
    },
    {
      "inputs": [
        {
          "internalType": "address",
          "name": "account",
          "type": "address"
        }
      ],
      "name": "OwnableUnauthorizedAccount",
      "type": "error"
    },
    {
      "inputs": [],
      "name": "ReentrancyGuardReentrantCall",
      "type": "error"
    },
    {
      "anonymous": false,
      "inputs": [
        {
          "indexed": true,
          "internalType": "address",
          "name": "user",
          "type": "address"
        },
        {
          "indexed": false,
          "internalType": "uint256",
          "name": "budget",
          "type": "uint256"
        }
      ],
      "name": "BudgetSet",
      "type": "event"
    },
    {
      "anonymous": false,
      "inputs": [
        {
          "indexed": true,
          "internalType": "address",
          "name": "user",
          "type": "address"
        },
        {
          "indexed": false,
          "internalType": "uint256",
          "name": "amount",
          "type": "uint256"
        },
        {
          "indexed": false,
          "internalType": "uint256",
          "name": "interestRate",
          "type": "uint256"
        }
      ],
      "name": "LoanRefinanced",
      "type": "event"
    },
    {
      "anonymous": false,
      "inputs": [
        {
          "indexed": true,
          "internalType": "address",
          "name": "previousOwner",
          "type": "address"
        },
        {
          "indexed": true,
          "internalType": "address",
          "name": "newOwner",
          "type": "address"
        }
      ],
      "name": "OwnershipTransferred",
      "type": "event"
    },
    {
      "anonymous": false,
      "inputs": [
        {
          "indexed": true,
          "internalType": "address",
          "name": "user",
          "type": "address"
        },
        {
          "indexed": false,
          "internalType": "uint256",
          "name": "amount",
          "type": "uint256"
        }
      ],
      "name": "SavingsDeposited",
      "type": "event"
    },
    {
      "anonymous": false,
      "inputs": [
        {
          "indexed": true,
          "internalType": "address",
          "name": "user",
          "type": "address"
        },
        {
          "indexed": false,
          "internalType": "uint256",
          "name": "goal",
          "type": "uint256"
        }
      ],
      "name": "SavingsGoalSet",
      "type": "event"
    },
    {
      "anonymous": false,
      "inputs": [
        {
          "indexed": true,
          "internalType": "address",
          "name": "user",
          "type": "address"
        },
        {
          "indexed": false,
          "internalType": "uint256",
          "name": "amount",
          "type": "uint256"
        }
      ],
      "name": "SavingsWithdrawn",
      "type": "event"
    },
    {
      "anonymous": false,
      "inputs": [
        {
          "indexed": true,
          "internalType": "address",
          "name": "user",
          "type": "address"
        },
        {
          "indexed": false,
          "internalType": "uint256",
          "name": "amount",
          "type": "uint256"
        }
      ],
      "name": "TransactionRecorded",
      "type": "event"
    },
    {
      "inputs": [
        {
          "internalType": "uint256",
          "name": "_amount",
          "type": "uint256"
        }
      ],
      "name": "depositSavings",
      "outputs": [],
      "stateMutability": "nonpayable",
      "type": "function"
    },
    {
      "inputs": [
        {
          "internalType": "uint256",
          "name": "_amount",
          "type": "uint256"
        }
      ],
      "name": "emergencyWithdraw",
      "outputs": [],
      "stateMutability": "nonpayable",
      "type": "function"
    },
    {
      "inputs": [
        {
          "internalType": "address",
          "name": "_user",
          "type": "address"
        }
      ],
      "name": "getFinancialSummary",
      "outputs": [
        {
          "internalType": "uint256",
          "name": "totalBudget",
          "type": "uint256"
        },
        {
          "internalType": "uint256",
          "name": "totalSpent",
          "type": "uint256"
        },
        {
          "internalType": "uint256",
          "name": "loanBalance",
          "type": "uint256"
        },
        {
          "internalType": "uint256",
          "name": "interestRate",
          "type": "uint256"
        },
        {
          "internalType": "uint256",
          "name": "savingsGoal",
          "type": "uint256"
        },
        {
          "internalType": "uint256",
          "name": "savingsBalance",
          "type": "uint256"
        }
      ],
      "stateMutability": "view",
      "type": "function"
    },
    {
      "inputs": [],
      "name": "initializeProfile",
      "outputs": [],
      "stateMutability": "nonpayable",
      "type": "function"
    },
    {
      "inputs": [],
      "name": "oracle",
      "outputs": [
        {
          "internalType": "address",
          "name": "",
          "type": "address"
        }
      ],
      "stateMutability": "view",
      "type": "function"
    },
    {
      "inputs": [],
      "name": "owner",
      "outputs": [
        {
          "internalType": "address",
          "name": "",
          "type": "address"
        }
      ],
      "stateMutability": "view",
      "type": "function"
    },
    {
      "inputs": [
        {
          "internalType": "address",
          "name": "_user",
          "type": "address"
        },
        {
          "internalType": "uint256",
          "name": "_amount",
          "type": "uint256"
        }
      ],
      "name": "recordTransaction",
      "outputs": [],
      "stateMutability": "nonpayable",
      "type": "function"
    },
    {
      "inputs": [
        {
          "internalType": "uint256",
          "name": "_loanAmount",
          "type": "uint256"
        },
        {
          "internalType": "uint256",
          "name": "_baseInterestRate",
          "type": "uint256"
        }
      ],
      "name": "refinanceLoanWithStablecoin",
      "outputs": [],
      "stateMutability": "nonpayable",
      "type": "function"
    },
    {
      "inputs": [],
      "name": "renounceOwnership",
      "outputs": [],
      "stateMutability": "nonpayable",
      "type": "function"
    },
    {
      "inputs": [
        {
          "internalType": "uint256",
          "name": "_budget",
          "type": "uint256"
        }
      ],
      "name": "setBudget",
      "outputs": [],
      "stateMutability": "nonpayable",
      "type": "function"
    },
    {
      "inputs": [
        {
          "internalType": "uint256",
          "name": "_goal",
          "type": "uint256"
        }
      ],
      "name": "setSavingsGoal",
      "outputs": [],
      "stateMutability": "nonpayable",
      "type": "function"
    },
    {
      "inputs": [],
      "name": "stablecoin",
      "outputs": [
        {
          "internalType": "contract IERC20",
          "name": "",
          "type": "address"
        }
      ],
      "stateMutability": "view",
      "type": "function"
    },
    {
      "inputs": [
        {
          "internalType": "address",
          "name": "newOwner",
          "type": "address"
        }
      ],
      "name": "transferOwnership",
      "outputs": [],
      "stateMutability": "nonpayable",
      "type": "function"
    },
    {
      "inputs": [
        {
          "internalType": "address",
          "name": "_newOracle",
          "type": "address"
        }
      ],
      "name": "updateOracle",
      "outputs": [],
      "stateMutability": "nonpayable",
      "type": "function"
    },
    {
      "inputs": [
        {
          "internalType": "address",
          "name": "",
          "type": "address"
        }
      ],
      "name": "userProfiles",
      "outputs": [
        {
          "internalType": "uint256",
          "name": "totalBudget",
          "type": "uint256"
        },
        {
          "internalType": "uint256",
          "name": "totalSpent",
          "type": "uint256"
        },
        {
          "internalType": "uint256",
          "name": "loanBalance",
          "type": "uint256"
        },
        {
          "internalType": "uint256",
          "name": "interestRate",
          "type": "uint256"
        },
        {
          "internalType": "uint256",
          "name": "savingsGoal",
          "type": "uint256"
        },
        {
          "internalType": "uint256",
          "name": "savingsBalance",
          "type": "uint256"
        },
        {
          "internalType": "bool",
          "name": "isActive",
          "type": "bool"
        }
      ],
      "stateMutability": "view",
      "type": "function"
    },
    {
      "inputs": [
        {
          "internalType": "uint256",
          "name": "_amount",
          "type": "uint256"
        }
      ],
      "name": "withdrawSavings",
      "outputs": [],
      "stateMutability": "nonpayable",
      "type": "function"
    }
  ],
  "bytecode": "0x60806040523480156200001157600080fd5b50604051620023583803806200235883398181016040528101906200003791906200027e565b33600073ffffffffffffffffffffffffffffffffffffffff168173ffffffffffffffffffffffffffffffffffffffff1603620000ad5760006040517f1e4fbdf7000000000000000000000000000000000000000000000000000000008152600401620000a49190620002d6565b60405180910390fd5b620000be816200015060201b60201c565b506001808190555081600260006101000a81548173ffffffffffffffffffffffffffffffffffffffff021916908373ffffffffffffffffffffffffffffffffffffffff16021790555080600360006101000a81548173ffffffffffffffffffffffffffffffffffffffff021916908373ffffffffffffffffffffffffffffffffffffffff1602179055505050620002f3565b60008060009054906101000a900473ffffffffffffffffffffffffffffffffffffffff169050816000806101000a81548173ffffffffffffffffffffffffffffffffffffffff021916908373ffffffffffffffffffffffffffffffffffffffff1602179055508173ffffffffffffffffffffffffffffffffffffffff168173ffffffffffffffffffffffffffffffffffffffff167f8be0079c531659141344cd1fd0a4f28419497f9722a3daafe3b4186f6b6457e060405160405180910390a35050565b600080fd5b600073ffffffffffffffffffffffffffffffffffffffff82169050919050565b6000620002468262000219565b9050919050565b620002588162000239565b81146200026457600080fd5b50565b60008151905062000278816200024d565b92915050565b6000806040838503121562000298576200029762000214565b5b6000620002a88582860162000267565b9250506020620002bb8582860162000267565b9150509250929050565b620002d08162000239565b82525050565b6000602082019050620002ed6000830184620002c5565b92915050565b61205580620003036000396000f3fe608060405234801561001057600080fd5b50600436106101005760003560e01c8063a453b6cf11610097578063de082c8311610066578063de082c8314610268578063de98645014610284578063e9cbd822146102a0578063f2fde38b146102be57610100565b8063a453b6cf146101f1578063a659a7be1461020d578063bc8523fc14610242578063c44cdfba1461025e57610100565b80635312ea8e116100d35780635312ea8e1461018f578063715018a6146101ab5780637dc0d1d0146101b55780638da5cb5b146101d357610100565b806317ca06ab146101055780631cb44dfc1461012157806331a93e8a1461013d578063332d56d714610159575b600080fd5b61011f600480360381019061011a9190611728565b6102da565b005b61013b60048036038101906101369190611768565b6104a4565b005b61015760048036038101906101529190611795565b6104f0565b005b610173600480360381019061016e9190611768565b610617565b60405161018697969594939291906117ec565b60405180910390f35b6101a960048036038101906101a49190611795565b610666565b005b6101b3610767565b005b6101bd61077b565b6040516101ca919061186a565b60405180910390f35b6101db6107a1565b6040516101e8919061186a565b60405180910390f35b61020b60048036038101906102069190611795565b6107ca565b005b61022760048036038101906102229190611768565b610a37565b60405161023996959493929190611885565b60405180910390f35b61025c60048036038101906102579190611795565b610b19565b005b610266610c40565b005b610282600480360381019061027d91906118e6565b610dac565b005b61029e60048036038101906102999190611795565b611151565b005b6102a8611441565b6040516102b59190611985565b60405180910390f35b6102d860048036038101906102d39190611768565b611467565b005b600360009054906101000a900473ffffffffffffffffffffffffffffffffffffffff1673ffffffffffffffffffffffffffffffffffffffff163373ffffffffffffffffffffffffffffffffffffffff161461036a576040517f08c379a0000000000000000000000000000000000000000000000000000000008152600401610361906119fd565b60405180910390fd5b600460008373ffffffffffffffffffffffffffffffffffffffff1673ffffffffffffffffffffffffffffffffffffffff16815260200190815260200160002060060160009054906101000a900460ff166103f9576040517f08c379a00000000000000000000000000000000000000000000000000000000081526004016103f090611a69565b60405180910390fd5b80600460008473ffffffffffffffffffffffffffffffffffffffff1673ffffffffffffffffffffffffffffffffffffffff168152602001908152602001600020600101600082825461044b9190611ab8565b925050819055508173ffffffffffffffffffffffffffffffffffffffff167ffc45bb077703c244eb88eea3608b15066b5e8dd2c9cbd6f28b4a3f939aa7b8b9826040516104989190611aec565b60405180910390a25050565b6104ac6114ed565b80600360006101000a81548173ffffffffffffffffffffffffffffffffffffffff021916908373ffffffffffffffffffffffffffffffffffffffff16021790555050565b600460003373ffffffffffffffffffffffffffffffffffffffff1673ffffffffffffffffffffffffffffffffffffffff16815260200190815260200160002060060160009054906101000a900460ff1661057f576040517f08c379a000000000000000000000000000000000000000000000000000000000815260040161057690611b53565b60405180910390fd5b80600460003373ffffffffffffffffffffffffffffffffffffffff1673ffffffffffffffffffffffffffffffffffffffff168152602001908152602001600020600401819055503373ffffffffffffffffffffffffffffffffffffffff167f7bbba3916eaf2d72d65b283451781d64eeb7f583f400df2ff88949133ed70ea68260405161060c9190611aec565b60405180910390a250565b60046020528060005260406000206000915090508060000154908060010154908060020154908060030154908060040154908060050154908060060160009054906101000a900460ff16905087565b61066e6114ed565b610676611574565b600260009054906101000a900473ffffffffffffffffffffffffffffffffffffffff1673ffffffffffffffffffffffffffffffffffffffff1663a9059cbb6106bc6107a1565b836040518363ffffffff1660e01b81526004016106da929190611b73565b6020604051808303816000875af11580156106f9573d6000803e3d6000fd5b505050506040513d601f19601f8201168201806040525081019061071d9190611bc8565b61075c576040517f08c379a000000000000000000000000000000000000000000000000000000000815260040161075390611c41565b60405180910390fd5b6107646115ba565b50565b61076f6114ed565b61077960006115c3565b565b600360009054906101000a900473ffffffffffffffffffffffffffffffffffffffff1681565b60008060009054906101000a900473ffffffffffffffffffffffffffffffffffffffff16905090565b600460003373ffffffffffffffffffffffffffffffffffffffff1673ffffffffffffffffffffffffffffffffffffffff16815260200190815260200160002060060160009054906101000a900460ff16610859576040517f08c379a000000000000000000000000000000000000000000000000000000000815260040161085090611b53565b60405180910390fd5b610861611574565b600081116108a4576040517f08c379a000000000000000000000000000000000000000000000000000000000815260040161089b90611cad565b60405180910390fd5b600260009054906101000a900473ffffffffffffffffffffffffffffffffffffffff1673ffffffffffffffffffffffffffffffffffffffff166323b872dd3330846040518463ffffffff1660e01b815260040161090393929190611ccd565b6020604051808303816000875af1158015610922573d6000803e3d6000fd5b505050506040513d601f19601f820116820180604052508101906109469190611bc8565b610985576040517f08c379a000000000000000000000000000000000000000000000000000000000815260040161097c90611c41565b60405180910390fd5b80600460003373ffffffffffffffffffffffffffffffffffffffff1673ffffffffffffffffffffffffffffffffffffffff16815260200190815260200160002060050160008282546109d79190611ab8565b925050819055503373ffffffffffffffffffffffffffffffffffffffff167fe936053bbd55b62d9c7cf262dc33e519afb8fea9bfdadb3ca7ec92075eb4480b82604051610a249190611aec565b60405180910390a2610a346115ba565b50565b6000806000806000806000600460008973ffffffffffffffffffffffffffffffffffffffff1673ffffffffffffffffffffffffffffffffffffffff1681526020019081526020016000206040518060e00160405290816000820154815260200160018201548152602001600282015481526020016003820154815260200160048201548152602001600582015481526020016006820160009054906101000a900460ff1615151515815250509050806000015181602001518260400151836060015184608001518560a001519650965096509650965096505091939550919395565b600460003373ffffffffffffffffffffffffffffffffffffffff1673ffffffffffffffffffffffffffffffffffffffff16815260200190815260200160002060060160009054906101000a900460ff16610ba8576040517f08c379a0000000000000000000000000000000000000000000000000000000008152600401610b9f90611b53565b60405180910390fd5b80600460003373ffffffffffffffffffffffffffffffffffffffff1673ffffffffffffffffffffffffffffffffffffffff168152602001908152602001600020600001819055503373ffffffffffffffffffffffffffffffffffffffff167f107877fe73fde3011599848fdc241395c13078377bc23c53e1b2d791340ba72e82604051610c359190611aec565b60405180910390a250565b600460003373ffffffffffffffffffffffffffffffffffffffff1673ffffffffffffffffffffffffffffffffffffffff16815260200190815260200160002060060160009054906101000a900460ff1615610cd0576040517f08c379a0000000000000000000000000000000000000000000000000000000008152600401610cc790611d50565b60405180910390fd5b6040518060e0016040528060008152602001600081526020016000815260200160008152602001600081526020016000815260200160011515815250600460003373ffffffffffffffffffffffffffffffffffffffff1673ffffffffffffffffffffffffffffffffffffffff168152602001908152602001600020600082015181600001556020820151816001015560408201518160020155606082015181600301556080820151816004015560a0820151816005015560c08201518160060160006101000a81548160ff021916908315150217905550905050565b600460003373ffffffffffffffffffffffffffffffffffffffff1673ffffffffffffffffffffffffffffffffffffffff16815260200190815260200160002060060160009054906101000a900460ff16610e3b576040517f08c379a0000000000000000000000000000000000000000000000000000000008152600401610e3290611b53565b60405180910390fd5b610e43611574565b60008211610e86576040517f08c379a0000000000000000000000000000000000000000000000000000000008152600401610e7d90611dbc565b60405180910390fd5b81600260009054906101000a900473ffffffffffffffffffffffffffffffffffffffff1673ffffffffffffffffffffffffffffffffffffffff166370a08231306040518263ffffffff1660e01b8152600401610ee2919061186a565b602060405180830381865afa158015610eff573d6000803e3d6000fd5b505050506040513d601f19601f82011682018060405250810190610f239190611df1565b1015610f64576040517f08c379a0000000000000000000000000000000000000000000000000000000008152600401610f5b90611e6a565b60405180910390fd5b6000600282610f739190611eb9565b905082600460003373ffffffffffffffffffffffffffffffffffffffff1673ffffffffffffffffffffffffffffffffffffffff1681526020019081526020016000206002016000828254610fc79190611ab8565b9250508190555080600460003373ffffffffffffffffffffffffffffffffffffffff1673ffffffffffffffffffffffffffffffffffffffff16815260200190815260200160002060030181905550600260009054906101000a900473ffffffffffffffffffffffffffffffffffffffff1673ffffffffffffffffffffffffffffffffffffffff1663a9059cbb33856040518363ffffffff1660e01b8152600401611072929190611b73565b6020604051808303816000875af1158015611091573d6000803e3d6000fd5b505050506040513d601f19601f820116820180604052508101906110b59190611bc8565b6110f4576040517f08c379a00000000000000000000000000000000000000000000000000000000081526004016110eb90611f36565b60405180910390fd5b3373ffffffffffffffffffffffffffffffffffffffff167f512b6420c4282e955cf95ce5c7c9e1b3e6646e0145704734a6193aafc2d3adec848360405161113c929190611f56565b60405180910390a25061114d6115ba565b5050565b600460003373ffffffffffffffffffffffffffffffffffffffff1673ffffffffffffffffffffffffffffffffffffffff16815260200190815260200160002060060160009054906101000a900460ff166111e0576040517f08c379a00000000000000000000000000000000000000000000000000000000081526004016111d790611b53565b60405180910390fd5b6111e8611574565b6000811161122b576040517f08c379a000000000000000000000000000000000000000000000000000000000815260040161122290611cad565b60405180910390fd5b80600460003373ffffffffffffffffffffffffffffffffffffffff1673ffffffffffffffffffffffffffffffffffffffff1681526020019081526020016000206005015410156112b0576040517f08c379a00000000000000000000000000000000000000000000000000000000081526004016112a790611fcb565b60405180910390fd5b600260009054906101000a900473ffffffffffffffffffffffffffffffffffffffff1673ffffffffffffffffffffffffffffffffffffffff1663a9059cbb33836040518363ffffffff1660e01b815260040161130d929190611b73565b6020604051808303816000875af115801561132c573d6000803e3d6000fd5b505050506040513d601f19601f820116820180604052508101906113509190611bc8565b61138f576040517f08c379a000000000000000000000000000000000000000000000000000000000815260040161138690611c41565b60405180910390fd5b80600460003373ffffffffffffffffffffffffffffffffffffffff1673ffffffffffffffffffffffffffffffffffffffff16815260200190815260200160002060050160008282546113e19190611feb565b925050819055503373ffffffffffffffffffffffffffffffffffffffff167f94b83bc1ebe4ddd04e2faa0e9f2883abf856cea4923e56a6ec7c8c40fb2b02ba8260405161142e9190611aec565b60405180910390a261143e6115ba565b50565b600260009054906101000a900473ffffffffffffffffffffffffffffffffffffffff1681565b61146f6114ed565b600073ffffffffffffffffffffffffffffffffffffffff168173ffffffffffffffffffffffffffffffffffffffff16036114e15760006040517f1e4fbdf70000000000000000000000000000000000000000000000000000000081526004016114d8919061186a565b60405180910390fd5b6114ea816115c3565b50565b6114f5611687565b73ffffffffffffffffffffffffffffffffffffffff166115136107a1565b73ffffffffffffffffffffffffffffffffffffffff161461157257611536611687565b6040517f118cdaa7000000000000000000000000000000000000000000000000000000008152600401611569919061186a565b60405180910390fd5b565b6002600154036115b0576040517f3ee5aeb500000000000000000000000000000000000000000000000000000000815260040160405180910390fd5b6002600181905550565b60018081905550565b60008060009054906101000a900473ffffffffffffffffffffffffffffffffffffffff169050816000806101000a81548173ffffffffffffffffffffffffffffffffffffffff021916908373ffffffffffffffffffffffffffffffffffffffff1602179055508173ffffffffffffffffffffffffffffffffffffffff168173ffffffffffffffffffffffffffffffffffffffff167f8be0079c531659141344cd1fd0a4f28419497f9722a3daafe3b4186f6b6457e060405160405180910390a35050565b600033905090565b600080fd5b600073ffffffffffffffffffffffffffffffffffffffff82169050919050565b60006116bf82611694565b9050919050565b6116cf816116b4565b81146116da57600080fd5b50565b6000813590506116ec816116c6565b92915050565b6000819050919050565b611705816116f2565b811461171057600080fd5b50565b600081359050611722816116fc565b92915050565b6000806040838503121561173f5761173e61168f565b5b600061174d858286016116dd565b925050602061175e85828601611713565b9150509250929050565b60006020828403121561177e5761177d61168f565b5b600061178c848285016116dd565b91505092915050565b6000602082840312156117ab576117aa61168f565b5b60006117b984828501611713565b91505092915050565b6117cb816116f2565b82525050565b60008115159050919050565b6117e6816117d1565b82525050565b600060e082019050611801600083018a6117c2565b61180e60208301896117c2565b61181b60408301886117c2565b61182860608301876117c2565b61183560808301866117c2565b61184260a08301856117c2565b61184f60c08301846117dd565b98975050505050505050565b611864816116b4565b82525050565b600060208201905061187f600083018461185b565b92915050565b600060c08201905061189a60008301896117c2565b6118a760208301886117c2565b6118b460408301876117c2565b6118c160608301866117c2565b6118ce60808301856117c2565b6118db60a08301846117c2565b979650505050505050565b600080604083850312156118fd576118fc61168f565b5b600061190b85828601611713565b925050602061191c85828601611713565b9150509250929050565b6000819050919050565b600061194b61194661194184611694565b611926565b611694565b9050919050565b600061195d82611930565b9050919050565b600061196f82611952565b9050919050565b61197f81611964565b82525050565b600060208201905061199a6000830184611976565b92915050565b600082825260208201905092915050565b7f4f6e6c79206f7261636c652063616e207265636f726400000000000000000000600082015250565b60006119e76016836119a0565b91506119f2826119b1565b602082019050919050565b60006020820190508181036000830152611a16816119da565b9050919050565b7f496e6163746976652070726f66696c6500000000000000000000000000000000600082015250565b6000611a536010836119a0565b9150611a5e82611a1d565b602082019050919050565b60006020820190508181036000830152611a8281611a46565b9050919050565b7f4e487b7100000000000000000000000000000000000000000000000000000000600052601160045260246000fd5b6000611ac3826116f2565b9150611ace836116f2565b9250828201905080821115611ae657611ae5611a89565b5b92915050565b6000602082019050611b0160008301846117c2565b92915050565b7f50726f66696c65206e6f74206163746976650000000000000000000000000000600082015250565b6000611b3d6012836119a0565b9150611b4882611b07565b602082019050919050565b60006020820190508181036000830152611b6c81611b30565b9050919050565b6000604082019050611b88600083018561185b565b611b9560208301846117c2565b9392505050565b611ba5816117d1565b8114611bb057600080fd5b50565b600081519050611bc281611b9c565b92915050565b600060208284031215611bde57611bdd61168f565b5b6000611bec84828501611bb3565b91505092915050565b7f5472616e73666572206661696c65640000000000000000000000000000000000600082015250565b6000611c2b600f836119a0565b9150611c3682611bf5565b602082019050919050565b60006020820190508181036000830152611c5a81611c1e565b9050919050565b7f416d6f756e74206d757374206265203e20300000000000000000000000000000600082015250565b6000611c976012836119a0565b9150611ca282611c61565b602082019050919050565b60006020820190508181036000830152611cc681611c8a565b9050919050565b6000606082019050611ce2600083018661185b565b611cef602083018561185b565b611cfc60408301846117c2565b949350505050565b7f416c726561647920696e697469616c697a656400000000000000000000000000600082015250565b6000611d3a6013836119a0565b9150611d4582611d04565b602082019050919050565b60006020820190508181036000830152611d6981611d2d565b9050919050565b7f4c6f616e206d757374206265203e203000000000000000000000000000000000600082015250565b6000611da66010836119a0565b9150611db182611d70565b602082019050919050565b60006020820190508181036000830152611dd581611d99565b9050919050565b600081519050611deb816116fc565b92915050565b600060208284031215611e0757611e0661168f565b5b6000611e1584828501611ddc565b91505092915050565b7f496e73756666696369656e7420636f6e74726163742062616c616e6365000000600082015250565b6000611e54601d836119a0565b9150611e5f82611e1e565b602082019050919050565b60006020820190508181036000830152611e8381611e47565b9050919050565b7f4e487b7100000000000000000000000000000000000000000000000000000000600052601260045260246000fd5b6000611ec4826116f2565b9150611ecf836116f2565b925082611edf57611ede611e8a565b5b828204905092915050565b7f537461626c65636f696e207472616e73666572206661696c6564000000000000600082015250565b6000611f20601a836119a0565b9150611f2b82611eea565b602082019050919050565b60006020820190508181036000830152611f4f81611f13565b9050919050565b6000604082019050611f6b60008301856117c2565b611f7860208301846117c2565b9392505050565b7f4e6f7420656e6f7567682062616c616e63650000000000000000000000000000600082015250565b6000611fb56012836119a0565b9150611fc082611f7f565b602082019050919050565b60006020820190508181036000830152611fe481611fa8565b9050919050565b6000611ff6826116f2565b9150612001836116f2565b925082820390508181111561201957612018611a89565b5b9291505056fea264697066735822122036b99a2e42223b598e515b8e639b5d5acebb1260526c0c35667f46aedb612be664736f6c63430008140033",
  "linkReferences": {},
  "deployedLinkReferences": {}
}